{
    "address": "0xe7f1725E7734CE288F8367e1Bb143E90bb3F0512",
    "abi": [
        {
            "inputs": [
                {
                    "internalType": "address",
                    "name": "priceFeedAddress",
                    "type": "address"
                }
            ],
            "stateMutability": "nonpayable",
            "type": "constructor"
        },
        {
            "inputs": [],
            "name": "FundMe__NotOwner",
            "type": "error"
        },
        {
            "stateMutability": "payable",
            "type": "fallback"
        },
        {
            "inputs": [],
            "name": "MINIMUM_USD",
            "outputs": [
                {
                    "internalType": "uint256",
                    "name": "",
                    "type": "uint256"
                }
            ],
            "stateMutability": "view",
            "type": "function"
        },
        {
            "inputs": [],
            "name": "cheaperWithdraw",
            "outputs": [],
            "stateMutability": "payable",
            "type": "function"
        },
        {
            "inputs": [],
            "name": "fund",
            "outputs": [],
            "stateMutability": "payable",
            "type": "function"
        },
        {
            "inputs": [
                {
                    "internalType": "address",
                    "name": "funder",
                    "type": "address"
                }
            ],
            "name": "getAddressToAmountFunded",
            "outputs": [
                {
                    "internalType": "uint256",
                    "name": "",
                    "type": "uint256"
                }
            ],
            "stateMutability": "view",
            "type": "function"
        },
        {
            "inputs": [
                {
                    "internalType": "uint256",
                    "name": "index",
                    "type": "uint256"
                }
            ],
            "name": "getFunders",
            "outputs": [
                {
                    "internalType": "address",
                    "name": "",
                    "type": "address"
                }
            ],
            "stateMutability": "view",
            "type": "function"
        },
        {
            "inputs": [],
            "name": "getOwner",
            "outputs": [
                {
                    "internalType": "address",
                    "name": "",
                    "type": "address"
                }
            ],
            "stateMutability": "view",
            "type": "function"
        },
        {
            "inputs": [],
            "name": "getPriceFeed",
            "outputs": [
                {
                    "internalType": "contract AggregatorV3Interface",
                    "name": "",
                    "type": "address"
                }
            ],
            "stateMutability": "view",
            "type": "function"
        },
        {
            "inputs": [],
            "name": "getVersion",
            "outputs": [
                {
                    "internalType": "uint256",
                    "name": "",
                    "type": "uint256"
                }
            ],
            "stateMutability": "view",
            "type": "function"
        },
        {
            "inputs": [],
            "name": "withdraw",
            "outputs": [],
            "stateMutability": "payable",
            "type": "function"
        },
        {
            "stateMutability": "payable",
            "type": "receive"
        }
    ],
    "transactionHash": "0x231152d912865ff54d1499ad48f6cfb9003609cd015c94e93178c3cfa9a875bb",
    "args": [
        "0x5FbDB2315678afecb367f032d93F642f64180aa3"
    ],
    "numDeployments": 1,
    "solcInputHash": "9af19832ff82140cfe6ba60ff5792edf",
    "bytecode": "0x60a06040523480156200001157600080fd5b50604051620013f5380380620013f5833981810160405281019062000037919062000120565b3373ffffffffffffffffffffffffffffffffffffffff1660808173ffffffffffffffffffffffffffffffffffffffff1660601b8152505080600260006101000a81548173ffffffffffffffffffffffffffffffffffffffff021916908373ffffffffffffffffffffffffffffffffffffffff1602179055505062000152565b600080fd5b600073ffffffffffffffffffffffffffffffffffffffff82169050919050565b6000620000e882620000bb565b9050919050565b620000fa81620000db565b81146200010657600080fd5b50565b6000815190506200011a81620000ef565b92915050565b600060208284031215620001395762000138620000b6565b5b6000620001498482850162000109565b91505092915050565b60805160601c6112766200017f6000396000818161045a015281816106a901526106f901526112766000f3fe60806040526004361061008a5760003560e01c80636b69a592116100595780636b69a59214610152578063893d20e81461017d5780639e87a5cd146101a8578063b60d4288146101d3578063be2693f0146101dd57610099565b80630343fb25146100a35780630d8e6e2c146100e05780633a7b6c741461010b5780633ccfd60b1461014857610099565b36610099576100976101e7565b005b6100a16101e7565b005b3480156100af57600080fd5b506100ca60048036038101906100c59190610b81565b610321565b6040516100d79190610bc7565b60405180910390f35b3480156100ec57600080fd5b506100f5610369565b6040516101029190610bc7565b60405180910390f35b34801561011757600080fd5b50610132600480360381019061012d9190610c0e565b610410565b60405161013f9190610c4a565b60405180910390f35b610150610458565b005b34801561015e57600080fd5b50610167610698565b6040516101749190610bc7565b60405180910390f35b34801561018957600080fd5b506101926106a5565b60405161019f9190610c4a565b60405180910390f35b3480156101b457600080fd5b506101bd6106cd565b6040516101ca9190610cc4565b60405180910390f35b6101db6101e7565b005b6101e56106f7565b005b6802b5e3af16b1880000610226600260009054906101000a900473ffffffffffffffffffffffffffffffffffffffff163461099b90919063ffffffff16565b1015610267576040517f08c379a000000000000000000000000000000000000000000000000000000000815260040161025e90610d3c565b60405180910390fd5b346000803373ffffffffffffffffffffffffffffffffffffffff1673ffffffffffffffffffffffffffffffffffffffff16815260200190815260200160002060008282546102b59190610d8b565b925050819055506001339080600181540180825580915050600190039060005260206000200160009091909190916101000a81548173ffffffffffffffffffffffffffffffffffffffff021916908373ffffffffffffffffffffffffffffffffffffffff160217905550565b60008060008373ffffffffffffffffffffffffffffffffffffffff1673ffffffffffffffffffffffffffffffffffffffff168152602001908152602001600020549050919050565b6000600260009054906101000a900473ffffffffffffffffffffffffffffffffffffffff1673ffffffffffffffffffffffffffffffffffffffff166354fd4d506040518163ffffffff1660e01b815260040160206040518083038186803b1580156103d357600080fd5b505afa1580156103e7573d6000803e3d6000fd5b505050506040513d601f19601f8201168201806040525081019061040b9190610df6565b905090565b60006001828154811061042657610425610e23565b5b9060005260206000200160009054906101000a900473ffffffffffffffffffffffffffffffffffffffff169050919050565b7f000000000000000000000000000000000000000000000000000000000000000073ffffffffffffffffffffffffffffffffffffffff163373ffffffffffffffffffffffffffffffffffffffff16146104dd576040517f579610db00000000000000000000000000000000000000000000000000000000815260040160405180910390fd5b60005b6001805490508110156105885760006001828154811061050357610502610e23565b5b9060005260206000200160009054906101000a900473ffffffffffffffffffffffffffffffffffffffff16905060008060008373ffffffffffffffffffffffffffffffffffffffff1673ffffffffffffffffffffffffffffffffffffffff1681526020019081526020016000208190555050808061058090610e52565b9150506104e0565b50600067ffffffffffffffff8111156105a4576105a3610e9b565b5b6040519080825280602002602001820160405280156105d25781602001602082028036833780820191505090505b50600190805190602001906105e8929190610a77565b5060003373ffffffffffffffffffffffffffffffffffffffff164760405161060f90610efb565b60006040518083038185875af1925050503d806000811461064c576040519150601f19603f3d011682016040523d82523d6000602084013e610651565b606091505b5050905080610695576040517f08c379a000000000000000000000000000000000000000000000000000000000815260040161068c90610f5c565b60405180910390fd5b50565b6802b5e3af16b188000081565b60007f0000000000000000000000000000000000000000000000000000000000000000905090565b6000600260009054906101000a900473ffffffffffffffffffffffffffffffffffffffff16905090565b7f000000000000000000000000000000000000000000000000000000000000000073ffffffffffffffffffffffffffffffffffffffff163373ffffffffffffffffffffffffffffffffffffffff161461077c576040517f579610db00000000000000000000000000000000000000000000000000000000815260040160405180910390fd5b6000600180548060200260200160405190810160405280929190818152602001828054801561080057602002820191906000526020600020905b8160009054906101000a900473ffffffffffffffffffffffffffffffffffffffff1673ffffffffffffffffffffffffffffffffffffffff16815260200190600101908083116107b6575b5050505050905060005b815181101561088a57600082828151811061082857610827610e23565b5b6020026020010151905060008060008373ffffffffffffffffffffffffffffffffffffffff1673ffffffffffffffffffffffffffffffffffffffff1681526020019081526020016000208190555050808061088290610e52565b91505061080a565b50600067ffffffffffffffff8111156108a6576108a5610e9b565b5b6040519080825280602002602001820160405280156108d45781602001602082028036833780820191505090505b50600190805190602001906108ea929190610a77565b5060003373ffffffffffffffffffffffffffffffffffffffff164760405161091190610efb565b60006040518083038185875af1925050503d806000811461094e576040519150601f19603f3d011682016040523d82523d6000602084013e610953565b606091505b5050905080610997576040517f08c379a000000000000000000000000000000000000000000000000000000000815260040161098e90610f5c565b60405180910390fd5b5050565b6000806109a7836109d7565b90506000670de0b6b3a764000085836109c09190610f7c565b6109ca9190611005565b9050809250505092915050565b6000808273ffffffffffffffffffffffffffffffffffffffff1663feaf968c6040518163ffffffff1660e01b815260040160a06040518083038186803b158015610a2057600080fd5b505afa158015610a34573d6000803e3d6000fd5b505050506040513d601f19601f82011682018060405250810190610a5891906110ae565b5050509150506402540be40081610a6f9190611129565b915050919050565b828054828255906000526020600020908101928215610af0579160200282015b82811115610aef5782518260006101000a81548173ffffffffffffffffffffffffffffffffffffffff021916908373ffffffffffffffffffffffffffffffffffffffff16021790555091602001919060010190610a97565b5b509050610afd9190610b01565b5090565b5b80821115610b1a576000816000905550600101610b02565b5090565b600080fd5b600073ffffffffffffffffffffffffffffffffffffffff82169050919050565b6000610b4e82610b23565b9050919050565b610b5e81610b43565b8114610b6957600080fd5b50565b600081359050610b7b81610b55565b92915050565b600060208284031215610b9757610b96610b1e565b5b6000610ba584828501610b6c565b91505092915050565b6000819050919050565b610bc181610bae565b82525050565b6000602082019050610bdc6000830184610bb8565b92915050565b610beb81610bae565b8114610bf657600080fd5b50565b600081359050610c0881610be2565b92915050565b600060208284031215610c2457610c23610b1e565b5b6000610c3284828501610bf9565b91505092915050565b610c4481610b43565b82525050565b6000602082019050610c5f6000830184610c3b565b92915050565b6000819050919050565b6000610c8a610c85610c8084610b23565b610c65565b610b23565b9050919050565b6000610c9c82610c6f565b9050919050565b6000610cae82610c91565b9050919050565b610cbe81610ca3565b82525050565b6000602082019050610cd96000830184610cb5565b92915050565b600082825260208201905092915050565b7f596f75206e65656420746f207370656e64206d6f726520455448210000000000600082015250565b6000610d26601b83610cdf565b9150610d3182610cf0565b602082019050919050565b60006020820190508181036000830152610d5581610d19565b9050919050565b7f4e487b7100000000000000000000000000000000000000000000000000000000600052601160045260246000fd5b6000610d9682610bae565b9150610da183610bae565b9250827fffffffffffffffffffffffffffffffffffffffffffffffffffffffffffffffff03821115610dd657610dd5610d5c565b5b828201905092915050565b600081519050610df081610be2565b92915050565b600060208284031215610e0c57610e0b610b1e565b5b6000610e1a84828501610de1565b91505092915050565b7f4e487b7100000000000000000000000000000000000000000000000000000000600052603260045260246000fd5b6000610e5d82610bae565b91507fffffffffffffffffffffffffffffffffffffffffffffffffffffffffffffffff821415610e9057610e8f610d5c565b5b600182019050919050565b7f4e487b7100000000000000000000000000000000000000000000000000000000600052604160045260246000fd5b600081905092915050565b50565b6000610ee5600083610eca565b9150610ef082610ed5565b600082019050919050565b6000610f0682610ed8565b9150819050919050565b7f43616c6c206661696c6564000000000000000000000000000000000000000000600082015250565b6000610f46600b83610cdf565b9150610f5182610f10565b602082019050919050565b60006020820190508181036000830152610f7581610f39565b9050919050565b6000610f8782610bae565b9150610f9283610bae565b9250817fffffffffffffffffffffffffffffffffffffffffffffffffffffffffffffffff0483118215151615610fcb57610fca610d5c565b5b828202905092915050565b7f4e487b7100000000000000000000000000000000000000000000000000000000600052601260045260246000fd5b600061101082610bae565b915061101b83610bae565b92508261102b5761102a610fd6565b5b828204905092915050565b600069ffffffffffffffffffff82169050919050565b61105581611036565b811461106057600080fd5b50565b6000815190506110728161104c565b92915050565b6000819050919050565b61108b81611078565b811461109657600080fd5b50565b6000815190506110a881611082565b92915050565b600080600080600060a086880312156110ca576110c9610b1e565b5b60006110d888828901611063565b95505060206110e988828901611099565b94505060406110fa88828901610de1565b935050606061110b88828901610de1565b925050608061111c88828901611063565b9150509295509295909350565b600061113482611078565b915061113f83611078565b9250827f7fffffffffffffffffffffffffffffffffffffffffffffffffffffffffffffff048211600084136000841316161561117e5761117d610d5c565b5b817f800000000000000000000000000000000000000000000000000000000000000005831260008412600084131616156111bb576111ba610d5c565b5b827f800000000000000000000000000000000000000000000000000000000000000005821260008413600084121616156111f8576111f7610d5c565b5b827f7fffffffffffffffffffffffffffffffffffffffffffffffffffffffffffffff058212600084126000841216161561123557611234610d5c565b5b82820290509291505056fea26469706673582212204fa1335ab007d3545bc484203ff77a531c1c0f8f6e86da3c20b448f52989254664736f6c63430008080033",
    "devdoc": {
        "author": "Patrick Collins",
        "details": "This implements price feeds as our library",
        "kind": "dev",
        "methods": {
            "fund()": {
                "details": "This implements price feeds as our library"
            }
        },
        "title": "A contract for crowd funding",
        "version": 1
    },
    "userdoc": {
        "kind": "user",
        "methods": {
            "fund()": {
                "notice": "This function funds this contract"
            }
        },
        "notice": "This contract is to demo a sample funding contract",
        "version": 1
    },
    "storageLayout": {
        "storage": [
            {
                "astId": 59,
                "contract": "contracts/FundMe.sol:FundMe",
                "label": "s_addressToAmountFunded",
                "offset": 0,
                "slot": "0",
                "type": "t_mapping(t_address,t_uint256)"
            },
            {
                "astId": 62,
                "contract": "contracts/FundMe.sol:FundMe",
                "label": "s_funders",
                "offset": 0,
                "slot": "1",
                "type": "t_array(t_address)dyn_storage"
            },
            {
                "astId": 74,
                "contract": "contracts/FundMe.sol:FundMe",
                "label": "s_priceFeed",
                "offset": 0,
                "slot": "2",
                "type": "t_contract(AggregatorV3Interface)45"
            }
        ],
        "types": {
            "t_address": {
                "encoding": "inplace",
                "label": "address",
                "numberOfBytes": "20"
            },
            "t_array(t_address)dyn_storage": {
                "base": "t_address",
                "encoding": "dynamic_array",
                "label": "address[]",
                "numberOfBytes": "32"
            },
            "t_contract(AggregatorV3Interface)45": {
                "encoding": "inplace",
                "label": "contract AggregatorV3Interface",
                "numberOfBytes": "20"
            },
            "t_mapping(t_address,t_uint256)": {
                "encoding": "mapping",
                "key": "t_address",
                "label": "mapping(address => uint256)",
                "numberOfBytes": "32",
                "value": "t_uint256"
            },
            "t_uint256": {
                "encoding": "inplace",
                "label": "uint256",
                "numberOfBytes": "32"
            }
        }
    }
}